:020000040800F2
:10000000600600200D020008150200081702000813
:10001000190200081B0200081D0200080000000071
:100020000000000000000000000000001F020008A7
:100030002102000800000000230200082502000839
:1000400027020008270200082702000827020008EC
:1000500027020008270200082702000827020008DC
:1000600027020008270200082702000827020008CC
:1000700027020008270200082702000827020008BC
:1000800027020008270200082702000827020008AC
:10009000270200082702000827020008270200089C
:1000A000270200082702000827020008270200088C
:1000B000270200082702000827020008270200087C
:1000C000270200082702000827020008270200086C
:1000D000270200082702000827020008270200085C
:1000E000270200082702000827020008270200084C
:1000F000270200082702000827020008270200083C
:10010000270200082702000827020008270200082B
:10011000270200082702000827020008270200081B
:10012000270200082702000827020008270200080B
:1001300027020008270200082702000827020008FB
:1001400027020008270200082702000827020008EB
:1001500027020008270200082702000827020008DB
:1001600027020008270200082702000827020008CB
:1001700027020008270200082702000800000000EC
:10018000270200082702000800F002F800F02EF80D
:100190000AA090E8000C82448344AAF10107DA45E2
:1001A00001D100F023F8AFF2090EBAE80F0013F006
:1001B000010F18BFFB1A43F001031847D8020000D3
:1001C000E80200000023002400250026103A28BF82
:1001D00078C1FBD8520728BF30C148BF0B607047B9
:1001E0001FB500F052F91FBD10B510BD00F031F879
:1001F0001146FFF7F5FF00F031F900F04FF803B4B6
:10020000FFF7F2FF03BC00F057F8000009488047F1
:1002100009480047FEE7FEE7FEE7FEE7FEE7FEE7E8
:10022000FEE7FEE7FEE7FEE704480549054A064B00
:1002300070470000C9020008890100086000002022
:1002400060060020600200206002002070477047B6
:100250007047754600F02CF8AE46050069465346D7
:1002600020F00700854618B020B5FFF7DDFFBDE898
:1002700020404FF000064FF000074FF000084FF00D
:10028000000B21F00701AC46ACE8C009ACE8C0099E
:10029000ACE8C009ACE8C0098D46704710B504460B
:1002A000AFF300802046BDE81040FFF7A8BF000074
:1002B000004870470000002001491820ABBEFEE74F
:1002C00026000200704700001448006840F47000E7
:1002D000124908601248006840F0010010490860A7
:1002E00000200F49083108600D4800680D4908409A
:1002F0000B4908600C48091D0860081F006820F4BD
:100300008020091F0860002005490C3108604FF06B
:1003100000600249803908607047000088ED00E005
:1003200000380240FFFFF6FE1030002430B50546CD
:100330000C4662782178284600F032F8A2782178BD
:10034000284600F049F822792178284600F036F84E
:10035000E2782178284600F046F86279217828462C
:1003600000F001F830BD30B508290CDA036A8D00C1
:100370000F24AC40A3430362036A8C0002FA04F426
:10038000234303620BE0436A8D000F24AC40A34378
:100390004362436A8C0002FA04F42343436230BD93
:1003A00030B503684D000324AC40A34303600368E9
:1003B0004C0002FA04F42343036030BD30B5836877
:1003C0004D000324AC40A343836083684C0002FAD1
:1003D00004F42343836030BD10B5436802FA01F48E
:1003E0002343436010BD30B5C3684D000324AC40C7
:1003F000A343C360C3684C0002FA04F42343C36000
:1004000030BD10B52AB1436901248C4023434361B8
:1004100004E0436901248C40A343436110BD000004
:100420007CB505460C460C48006840F008000A49B7
:1004300008608DF8004001208DF8010000208DF843
:10044000020001208DF8040000208DF803006946A9
:100450002846FFF76BFF7CBD3038024010B50F21F6
:100460000448FFF7DDFF0F21024800F005F80020E7
:1004700010BD0000000C024070B504460D4601227C
:1004800029462046FFF7BDFF70BD4FF04070E1EEFA
:10049000100A7047A4040008000000206006000055
:0404A000C40100088B
:040000050800020DE0
:00000001FF
