:020000040800F2
:10000000300F002031020008390200083B020008CE
:100010003D0200083F020008410200080000000005
:100020000000000000000000000000004302000883
:1000300045020008000000004702000849020008CD
:100040004B0200084B0200084B0200084B0200085C
:100050004B0200084B0200084B0200084B0200084C
:100060004B0200084B0200084B0200084B0200083C
:100070004B0200084B0200084B0200084B0200082C
:100080004B0200084B0200084B0200084B0200081C
:100090004B0200084B0200084B0200084B0200080C
:1000A0004B0200084B0200084B0200084B020008FC
:1000B0004B0200084B0200084B0200084B020008EC
:1000C0004B0200084B0200084B0200084B020008DC
:1000D0004B0200084B0200084B0200082D0C0008E0
:1000E0004B0200084B0200084B0200084B020008BC
:1000F0004B0200084B0200084B0200084B020008AC
:100100004B0200084B0200084B0200084B0200089B
:100110004B0200084B0200084B0200084B0200088B
:100120004B0200084B0200084B0200084B0200087B
:100130004B0200084B0200084B0200084B0200086B
:100140004B0200084B0200084B0200084B0200085B
:100150004B0200084B0200084B0200084B0200084B
:100160004B0200084B0200084B0200084B0200083B
:100170004B0200084B0200084B0200080000000080
:100180004B0200084B02000800F002F800F041F8B2
:100190000AA090E8000C82448344AAF10107DA45E2
:1001A00001D100F036F8AFF2090EBAE80F0013F0F3
:1001B000010F18BFFB1A43F001031847740E00002B
:1001C000940E0000103A24BF78C878C1FAD85207BC
:1001D00024BF30C830C144BF04680C6070470000C1
:1001E0000023002400250026103A28BF78C1FBD840
:1001F000520728BF30C148BF0B607047782900F014
:100200006B80002070471FB500F0F0FE1FBD10B5D9
:1002100010BD00F02BFA1146FFF7F5FF00F0BCFD12
:1002200000F049FA03B4FFF7F2FF03BC00F050FA04
:100230000948804709480047FEE7FEE7FEE7FEE77A
:10024000FEE7FEE7FEE7FEE7FEE7FEE704480549B6
:10025000054A064B70470000690A0008890100083A
:1002600030090020300F0020300B0020300B002020
:100270000FB4044910B503AA029800F0C9F910BCE4
:100280005DF814FBC400002070B504468569006861
:10029000C10601D5302600E02026C00707D070BD7A
:1002A000D4E9012130469047206A401C20626D1E2F
:1002B000F6D570BD70B5044685690078C00707D1D2
:1002C00070BDD4E9012120209047206A401C2062A3
:1002D0006D1EF6D570BD000070B504460D46214672
:1002E0001068AFF300802188090502D50F4A7A44CF
:1002F00002E00E4A7A440E32002104F1240305E0A4
:1003000000F00F060009965D5E54491C0028F7D1E5
:1003100020780023000704D5702D02D009B10223F4
:1003200011322046BDE8704000F018B9040D0000FD
:100330002DE9F05F894604464FF0000ADFF824B14A
:10034000FB44C0F820A02046E168884700287DD003
:10035000252806D0D4E901219047206A401C20625C
:10036000F1E700255F462046E168884720280646D9
:1003700007DB312E05D2B81910F8200C08B105435F
:10038000F1E7A80701D525F00405C4F81CA0002753
:10039000C4F818A02A2E09D0304600F082FC38B3E9
:1003A00004EB8708303EC8F8186019E059F8041BC0
:1003B000204604EB87029161E1688847012F0646D9
:1003C00018D1E069002820DA25F020051DE0D8F8D2
:1003D000180000EB800006EB40003038C8F8180029
:1003E0002046E1688847064600F05BFC0028EED115
:1003F000012F0AD02E2E08D12046E16888477F1CA5
:100400000646022F45F02005C4DBA069002803DA68
:10041000404245F00105A061E80701D025F0100534
:10042000A6B1A6F14100192802D8203645F400658E
:100430004A463146204625604D46FFF7DFFE60B153
:10044000012807D0ED1D25F0070000E007E000F1CE
:10045000080978E705F1040975E730467AE7206A6C
:10046000BDE8F09FDA0C0000032A40F2308010F063
:10047000030C00F0158011F8013BBCF1020F62443F
:1004800098BF11F801CB00F8013B38BF11F8013BD0
:10049000A2F1040298BF00F801CB38BF00F8013B7D
:1004A00011F0030300F02580083AC0F0088051F8ED
:1004B000043B083A51F804CBA0E80810F5E7121DF8
:1004C0005CBF51F8043B40F8043BAFF30080D20717
:1004D00024BF11F8013B11F801CB48BF11F8012BE3
:1004E00024BF00F8013B00F801CB48BF00F8012B06
:1004F000704710B5203AC0F00B80B1E81850203A90
:10050000A0E81850B1E81850A0E81850BFF4F5AFB3
:100510005FEA027C24BFB1E81850A0E8185044BF3D
:1005200018C918C0BDE810405FEA827C24BF51F8AA
:10053000043B40F8043B08BF7047D20728BF31F89E
:10054000023B48BF11F8012B28BF20F8023B48BFEF
:1005500000F8012B70477047704770472DE9F0474E
:100560000D4699469246044600F124080168880623
:1005700004D5E06921F01001216000E00120A842CB
:1005800001DD471B00E00027A1697A1902EB090091
:10059000081AA0612078C00602D42046FFF774FE36
:1005A000002608E0D4E901211AF806009047206AE5
:1005B000401C761C20624E45F4DB2078C0060AD52C
:1005C0002046FFF761FE06E0D4E901213020904784
:1005D000206A401C2062381EA7F10107F4DC07E006
:1005E000D4E9012118F805009047206A401C2062D8
:1005F000281EA5F10105F3DC2046FFF75BFE2078FD
:10060000000602D50220BDE8F0870120FBE70000CC
:10061000074B70B50D467B4400F011F804462846A0
:1006200000F020F810B14FF0FF3070BD204670BDD3
:100630006707000001694A1C02610878704700B52D
:100640008FB0CDE901310021059105497944CDE90B
:10065000031011466846FFF76BFE0FB000BD0000A7
:10066000E5FFFFFF007B00F080007047754600F05B
:100670002BF8AE4605006946534620F00700854634
:1006800018B020B5FFF7E2FDBDE820404FF00006AE
:100690004FF000074FF000084FF0000B21F007016A
:1006A000AC46ACE8C009ACE8C009ACE8C009ACE8AD
:1006B000C0098D46704710B50446AFF30080204650
:1006C000BDE81040FFF7AEBD00487047CC080020E1
:1006D00001491820ABBEFEE726000200704700006B
:1006E00010B500F075F81448006800F4803018B1B7
:1006F00012A0FFF7BDFD1EE014A0FFF7B9FD0E48E4
:10070000001D006840F002000B49091D0860084602
:10071000006840F0580008600846006840F48030E7
:10072000086000BF0448006800F480300028F9D158
:100730000AA0FFF79DFD10BD0C3C0240466C6173A2
:100740006820697320627573790D0A0053746172B1
:10075000742065726173696E670D0A00457261737A
:10076000696E6720636F6D706C65746500000000D2
:100770002DE9F04105460E462C464FF003080DA02A
:10078000FFF776FD0FE0276839460EA0FFF770FDF2
:10079000B8F1000F04D10DA0FFF76AFD4FF0040877
:1007A000241DA8F10108B442EDD308A0FFF760FDB5
:1007B000BDE8F08153746172742072656164696E82
:1007C000670D0A0020307825303858000D0A0000E7
:1007D0000548006800F0004028B1044802490C397F
:1007E0000860034808607047103C024023016745D9
:1007F000AB89EFCD2DE9F041074688461446FFF757
:10080000E7FF2348006800F4803018B121A0FFF70B
:100810002FFD3AE023A0FFF72BFD3E4600251C48A4
:10082000001D006840F001001949091D08600846D4
:10083000006840F40070086012E00020615D40EA4A
:100840000160691C615C40EA0140A91C615C40EAEE
:100850000120E91C615C08433060361D2D1D00BF7E
:100860004645EAD300BF0A48006800F480300028FB
:10087000F9D10748001D006820F001000449091D56
:1008800008600CA0FFF7F4FC00BFBDE8F081000099
:100890000C3C0240466C617368206973206275737A
:1008A000790D0A0053746172742077726974696EED
:1008B000670D0A0057726974696E6720636F6D7007
:1008C0006C6574650D0A00002DE9F041DDE90656FE
:1008D000089C4C4FB84208D14B4F3F6847F0010786
:1008E000DFF824C1CCF8007022E0484FB84208D1AC
:1008F000454F3F6847F00207DFF80CC1CCF80070A5
:1009000016E0434FB84208D13F4F3F6847F0040715
:10091000DFF8F4C0CCF800700AE03E4FB84207D1CF
:10092000394F3F6847F00807DFF8DCC0CCF80070AB
:1009300007684FEA41084FF0030C0CFA08FC27EA5D
:100940000C07076007684FEA410C02FA0CFC47EA03
:100950000C070760476803FA01FC47EA0C07476089
:1009600087684FEA41084FF0030C0CFA08FC27EAAD
:100970000C07876087684FEA410C05FA0CFC47EAD0
:100980000C078760C7684FEA41084FF0030C0CFA68
:1009900008FC27EA0C07C760C7684FEA410C06FA53
:1009A0000CFC47EA0C07C760082912DA076A4FEA0D
:1009B00081084FF00F0C0CFA08FC27EA0C070762BD
:1009C000076A4FEA810C04FA0CFC47EA0C0707623D
:1009D00015E0476A4FEA810CACF1200C4FF00F088C
:1009E00008FA0CF827EA08074762476A4FEA810CC1
:1009F000ACF1200C04FA0CFC47EA0C074762BDE896
:100A0000F081000000000240303802400004024043
:100A100000080240000C024010B500F035F9272014
:100A20000021002804DB0A07130E0D4A135406E0C8
:100A30000A07140E0B4A00F00F031B1FD45400BF0B
:100A40002720002809DB00F01F0201219140420904
:100A5000920002F1E022C2F8001100BF10BD0000B8
:100A600000E400E018ED00E01448006840F4700075
:100A7000124908601248006840F0010010490860FF
:100A800000200F49083108600D4800680D490840F2
:100A90000B4908600C48091D0860081F006820F415
:100AA0008020091F0860002005490C3108604FF0C4
:100AB00000600249803908607047000088ED00E05E
:100AC00000380240FFFFF6FE103000242DE9F04F01
:100AD00004460D4616461F46DDE909894A48844208
:100AE00006D14A48006840F010004849086038E0E4
:100AF0004748844208D14548001F006840F4003050
:100B00004249091F08602CE04248844208D13F480E
:100B1000001F006840F480203C49091F086020E065
:100B20003D48844208D13948001F006840F4002045
:100B30003649091F086014E03848844208D1334818
:100B4000001F006840F480103049091F086008E069
:100B50003348844205D12D48006840F020002B49DD
:100B60000860E06840EA0530E060206920F4405009
:100B70002061206940EA06302061E06840EA872071
:100B8000E060E06840EAC830E0601F48844202D07C
:100B90002348844214D142464946224800F088F84E
:100BA0008346424649461F4800F0C7F88246A0687F
:100BB00040EA0B00A060A06840EA0A10A06014E0C0
:100BC00042464946184800F073F883464246494673
:100BD000154800F0B2F88246A06840EA0B00A06019
:100BE000A06840EA0A10A06000BFE06840F008007A
:100BF000E060E06840F00400E060E06840F400502D
:100C0000E060BDE8F08F0000001001404438024071
:100C10000044004000480040004C004000500040AC
:100C2000001401400048E8010024F40000BF11480E
:100C3000006800F020000028F9D00E48001D006870
:100C40000D490870084600780C49096808700B487F
:100C50000068401C0949086009480068401C0849B0
:100C60000860054800787A2802D1012005490870FB
:100C70007047000000480040B8000020C00000207D
:100C8000BC000020B900002000B5024800F004F8C4
:100C900000BD000000480040C16841F02001C16073
:100CA000704730380A2801D2012070470020704771
:100CB00030B50346C2F10200C0004843B3FBF0F474
:100CC00000FB143080B200EE900AC2F10200C000B6
:100CD000484301EE900AF8EE611AB8EE602AC2EEBF
:100CE000212AB0EE621AF3EE001A61EE211AB0EE7C
:100CF000610AF2EE041A60EE211AFCEEE11A11EE1E
:100D0000900A84B2FCEEC01A11EE900A80B20A2555
:100D100005FB10402C4690FBF4F504FB150005285C
:100D200005DBF7EE001A70EE211AB0EE610AFCEE58
:100D3000C01A11EE900A80B230BD10B50346C2F160
:100D40000204E4004C43B3FBF4F4A0B210BD02462D
:100D50000020412A03DA40EA0213D8B203E0D31F8D
:100D600040EA0313D8B2412904DAA1F13003034366
:100D7000D8B203E0A1F137030343D8B270470000B3
:100D800070B504460D46E1B20248006800F0F7F87D
:100D9000204670BD5C00002000F0FAF80DE0074826
:100DA000007850B100200549087005A0FFF760FAEF
:100DB00008480168084800F011F8F0E7B900002081
:100DC00053746172742070726F6772616D696E67BF
:100DD0000D0A0000BC000020CC000020F0B5ADF5ED
:100DE000057D06460F4600240025FFF779FC39E013
:100DF00000E0641C305D3A2801D0BC42F9D3305D7C
:100E00003A282ED12246314601A800F045F84FF489
:100E1000847201A943A8FFF76CFB9DF81001042818
:100E200008D19DF8110145EA006543A8807945EA9B
:100E3000004515E09DF8100190B9BDF80E0141196B
:100E40000DA0FFF715FABDF80E212A449DF80C31CC
:100E5000D118BDF80E2150190DF21112FFF7CAFC7E
:100E600000BF641CBC42C3D30A490A48FF38FFF7DD
:100E70007FFC0DF5057DF0BD5772697465206174C6
:100E800020616464726573733A20253038780D0AE6
:100E900000000000FF000E08F0B5C3B007460C4686
:100EA000154600208DF80400ADF806008DF8080006
:100EB000002605E000210DF109008155701CC6B225
:100EC000142EF7DB00208DF80901AA1CA15C6A1C16
:100ED000A05CFFF73CFF8DF804002A1DA15CEA1C12
:100EE000A05CFFF734FFBDF8061041EA0020ADF822
:100EF0000600AA1DA15C6A1DA05CFFF728FFBDF8D3
:100F000006100843ADF8060005F10802A15CEA1DD1
:100F1000A05CFFF71CFF8DF80800002611E005F12A
:100F20000A02022303FB0622A15C05F1090203FB6E
:100F30000622A05CFFF70BFF0DF109018855701C1C
:100F4000C6B29DF80400B042E9DC9DF8043005F11A
:100F50000A024FF0020C1CFB0322A15C05F10902FE
:100F60001CFB0322A05CFFF7F2FE8DF809014FF491
:100F7000837201A93846FFF777FA43B0F0BD00BF8E
:100F8000026802F08002002AFAD041607047000037
:100F90000EB5072000210322CDE900210290104860
:100FA0000179002302220F48FFF78EFC0720002161
:100FB0000322CDE900210290094841790023022251
:100FC0000848FFF781FC4FF4165000210B460A46F3
:100FD000CDE900100448FFF779FDFFF71DFD0EBDB8
:100FE0002000002000040240004800404FF0407004
:100FF000E1EE100A70473031323334353637383944
:101000004142434445464030580030313233343554
:1010100036373839616263646566403078000400B1
:1010200000080000000000000002000100001000A5
:101030005010000800000020CC000000C40100088F
:101040001C110008CC000020640E0000E001000824
:1010500000100140090A0800001001400607FF00C7
:10106000004400400203040000440040050607005D
:10107000004800400A0B0C00004800400A0B0C001E
:101080000048004008090A00004C00400001FF0031
:10109000004C00400A0BFF00001401400607080046
:1010A000005000400C02FF0000000000004800401B
:1010B00000100140090A0800001001400607FF0067
:1010C00000440040020304000044004005060700FD
:1010D000004800400A0B0C00004800400A0B0C00BE
:1010E0000048004008090A00004C00400001FF00D1
:1010F000004C00400A0BFF000014014006070800E6
:10110000005000400C02FF00000000000000000042
:0C111000CC0000200000000000000000E7
:0400000508000231BC
:00000001FF
