:020000040800F2
:10000000401B002031020008390200083B020008B2
:100010003D0200083F020008410200080000000005
:100020000000000000000000000000004302000883
:1000300045020008000000004702000849020008CD
:100040004B0200084B0200084B0200084B0200085C
:100050004B0200084B0200084B0200084B0200084C
:100060004B0200084B0200084B0200084B0200083C
:100070004B0200084B0200084B0200084B0200082C
:100080004B0200084B0200084B0200084B0200081C
:100090004B0200084B0200084B0200084B0200080C
:1000A0004B0200084B0200084B0200084B020008FC
:1000B0004B0200084B0200084B0200084B020008EC
:1000C0004B0200084B0200084B0200084B020008DC
:1000D0004B0200084B0200084B020008CD0B000841
:1000E0004B0200084B0200084B0200084B020008BC
:1000F0004B0200084B0200084B0200084B020008AC
:100100004B0200084B0200084B0200084B0200089B
:100110004B0200084B0200084B0200084B0200088B
:100120004B0200084B0200084B0200084B0200087B
:100130004B0200084B0200084B0200084B0200086B
:100140004B0200084B0200084B0200084B0200085B
:100150004B0200084B0200084B0200084B0200084B
:100160004B0200084B0200084B0200084B0200083B
:100170004B0200084B0200084B0200080000000080
:100180004B0200084B02000800F002F800F041F8B2
:100190000AA090E8000C82448344AAF10107DA45E2
:1001A00001D100F036F8AFF2090EBAE80F0013F0F3
:1001B000010F18BFFB1A43F001031847CC0E0000D3
:1001C000EC0E0000103A24BF78C878C1FAD8520764
:1001D00024BF30C830C144BF04680C6070470000C1
:1001E0000023002400250026103A28BF78C1FBD840
:1001F000520728BF30C148BF0B607047782900F014
:100200006B80002070471FB500F01CFF1FBD10B5AC
:1002100010BD00F02BFA1146FFF7F5FF00F0D4FDFA
:1002200000F049FA03B4FFF7F2FF03BC00F050FA04
:100230000948804709480047FEE7FEE7FEE7FEE77A
:10024000FEE7FEE7FEE7FEE7FEE7FEE704480549B6
:10025000054A064B70470000090A0008890100089A
:1002600040150020401B00204017002040170020B0
:100270000FB4044910B503AA029800F0C9F910BCE4
:100280005DF814FBD400002070B504468569006851
:10029000C10601D5302600E02026C00707D070BD7A
:1002A000D4E9012130469047206A401C20626D1E2F
:1002B000F6D570BD70B5044685690078C00707D1D2
:1002C00070BDD4E9012120209047206A401C2062A3
:1002D0006D1EF6D570BD000070B504460D46214672
:1002E0001068AFF300802188090502D50F4A7A44CF
:1002F00002E00E4A7A440E32002104F1240305E0A4
:1003000000F00F060009965D5E54491C0028F7D1E5
:1003100020780023000704D5702D02D009B10223F4
:1003200011322046BDE8704000F018B95C0D0000A5
:100330002DE9F05F894604464FF0000ADFF824B14A
:10034000FB44C0F820A02046E168884700287DD003
:10035000252806D0D4E901219047206A401C20625C
:10036000F1E700255F462046E168884720280646D9
:1003700007DB312E05D2B81910F8200C08B105435F
:10038000F1E7A80701D525F00405C4F81CA0002753
:10039000C4F818A02A2E09D0304600F09AFC38B3D1
:1003A00004EB8708303EC8F8186019E059F8041BC0
:1003B000204604EB87029161E1688847012F0646D9
:1003C00018D1E069002820DA25F020051DE0D8F8D2
:1003D000180000EB800006EB40003038C8F8180029
:1003E0002046E1688847064600F073FC0028EED1FD
:1003F000012F0AD02E2E08D12046E16888477F1CA5
:100400000646022F45F02005C4DBA069002803DA68
:10041000404245F00105A061E80701D025F0100534
:10042000A6B1A6F14100192802D8203645F400658E
:100430004A463146204625604D46FFF7DFFE60B153
:10044000012807D0ED1D25F0070000E007E000F1CE
:10045000080978E705F1040975E730467AE7206A6C
:10046000BDE8F09F320D0000032A40F2308010F00A
:10047000030C00F0158011F8013BBCF1020F62443F
:1004800098BF11F801CB00F8013B38BF11F8013BD0
:10049000A2F1040298BF00F801CB38BF00F8013B7D
:1004A00011F0030300F02580083AC0F0088051F8ED
:1004B000043B083A51F804CBA0E80810F5E7121DF8
:1004C0005CBF51F8043B40F8043BAFF30080D20717
:1004D00024BF11F8013B11F801CB48BF11F8012BE3
:1004E00024BF00F8013B00F801CB48BF00F8012B06
:1004F000704710B5203AC0F00B80B1E81850203A90
:10050000A0E81850B1E81850A0E81850BFF4F5AFB3
:100510005FEA027C24BFB1E81850A0E8185044BF3D
:1005200018C918C0BDE810405FEA827C24BF51F8AA
:10053000043B40F8043B08BF7047D20728BF31F89E
:10054000023B48BF11F8012B28BF20F8023B48BFEF
:1005500000F8012B70477047704770472DE9F0474E
:100560000D4699469246044600F124080168880623
:1005700004D5E06921F01001216000E00120A842CB
:1005800001DD471B00E00027A1697A1902EB090091
:10059000081AA0612078C00602D42046FFF774FE36
:1005A000002608E0D4E901211AF806009047206AE5
:1005B000401C761C20624E45F4DB2078C0060AD52C
:1005C0002046FFF761FE06E0D4E901213020904784
:1005D000206A401C2062381EA7F10107F4DC07E006
:1005E000D4E9012118F805009047206A401C2062D8
:1005F000281EA5F10105F3DC2046FFF75BFE2078FD
:10060000000602D50220BDE8F0870120FBE70000CC
:10061000074B70B50D467B4400F011F804462846A0
:1006200000F020F810B14FF0FF3070BD204670BDD3
:100630009707000001694A1C02610878704700B5FD
:100640008FB0CDE901310021059105497944CDE90B
:10065000031011466846FFF76BFE0FB000BD0000A7
:10066000E5FFFFFF007B00F080007047754600F05B
:100670002BF8AE4605006946534620F00700854634
:1006800018B020B5FFF7E2FDBDE820404FF00006AE
:100690004FF000074FF000084FF0000B21F007016A
:1006A000AC46ACE8C009ACE8C009ACE8C009ACE8AD
:1006B000C0098D46704710B50446AFF30080204650
:1006C000BDE81040FFF7AEBD00487047DC140020C5
:1006D00001491820ABBEFEE726000200704700006B
:1006E00010B500F045F81448006800F4803018B1E7
:1006F00012A0FFF7BDFD1EE014A0FFF7B9FD0E48E4
:10070000001D006840F002000B49091D0860084602
:10071000006840F0580008600846006840F48030E7
:10072000086000BF0448006800F480300028F9D158
:100730000AA0FFF79DFD10BD0C3C0240466C6173A2
:100740006820697320627573790D0A0053746172B1
:10075000742065726173696E670D0A00457261737A
:10076000696E6720636F6D706C6574650D0A0000BB
:100770000548006800F0004028B1044802490C39DF
:100780000860034808607047103C02402301674539
:10079000AB89EFCD2DE9F041074688461446FFF7B7
:1007A000E7FF2348006800F4803018B121A0FFF76C
:1007B0005FFD3AE023A0FFF75BFD3E4600251C48A5
:1007C000001D006840F001001949091D0860084635
:1007D000006840F40070086012E00020615D08438A
:1007E000691C615C40EA0120A91C615C40EA01408F
:1007F000E91C615C40EA01603060361D2D1D00BFC0
:100800004645EAD300BF0A48006800F4803000285B
:10081000F9D10748001D006820F001000449091DB6
:1008200008600CA0FFF724FD00BFBDE8F0810000C8
:100830000C3C0240466C61736820697320627573DA
:10084000790D0A0053746172742077726974696E4D
:10085000670D0A0057726974696E6720636F6D7067
:100860006C6574650D0A00002DE9F041DDE906565E
:10087000089C4C4FB84208D14B4F3F6847F00107E6
:10088000DFF824C1CCF8007022E0484FB84208D10C
:10089000454F3F6847F00207DFF80CC1CCF8007005
:1008A00016E0434FB84208D13F4F3F6847F0040776
:1008B000DFF8F4C0CCF800700AE03E4FB84207D130
:1008C000394F3F6847F00807DFF8DCC0CCF800700C
:1008D00007684FEA41084FF0030C0CFA08FC27EABE
:1008E0000C07076007684FEA410C02FA0CFC47EA64
:1008F0000C070760476803FA01FC47EA0C074760EA
:1009000087684FEA41084FF0030C0CFA08FC27EA0D
:100910000C07876087684FEA410C05FA0CFC47EA30
:100920000C078760C7684FEA41084FF0030C0CFAC8
:1009300008FC27EA0C07C760C7684FEA410C06FAB3
:100940000CFC47EA0C07C760082912DA076A4FEA6D
:1009500081084FF00F0C0CFA08FC27EA0C0707621D
:10096000076A4FEA810C04FA0CFC47EA0C0707629D
:1009700015E0476A4FEA810CACF1200C4FF00F08EC
:1009800008FA0CF827EA08074762476A4FEA810C21
:10099000ACF1200C04FA0CFC47EA0C074762BDE8F6
:1009A000F0810000000002403038024000040240A4
:1009B00000080240000C024010B500F07DF927202D
:1009C0000021002804DB0A07130E0D4A135406E029
:1009D0000A07140E0B4A00F00F031B1FD45400BF6C
:1009E0002720002809DB00F01F0201219140420965
:1009F000920002F1E022C2F8001100BF10BD000019
:100A000000E400E018ED00E01448006840F47000D5
:100A1000124908601248006840F00100104908605F
:100A200000200F49083108600D4800680D49084052
:100A30000B4908600C48091D0860081F006820F475
:100A40008020091F0860002005490C3108604FF024
:100A500000600249803908607047000088ED00E0BE
:100A600000380240FFFFF6FE103000242DE9F04F61
:100A700004460D4616461F46DDE909894A48844268
:100A800006D14A48006840F010004849086038E044
:100A90004748844208D14548001F006840F40030B0
:100AA0004249091F08602CE04248844208D13F486F
:100AB000001F006840F480203C49091F086020E0C6
:100AC0003D48844208D13948001F006840F40020A6
:100AD0003649091F086014E03848844208D1334879
:100AE000001F006840F480103049091F086008E0CA
:100AF0003348844205D12D48006840F020002B493E
:100B00000860E06840EA0530E060206920F4405069
:100B10002061206940EA06302061E06840EA8720D1
:100B2000E060E06840EAC830E0601F48844202D0DC
:100B30002348844214D142464946224800F0D0F866
:100B40008346424649461F4800F00FF98246A06896
:100B500040EA0B00A060A06840EA0A10A06014E020
:100B600042464946184800F0BBF88346424649468B
:100B7000154800F0FAF88246A06840EA0B00A06031
:100B8000A06840EA0A10A06000BFE06840F00800DA
:100B9000E060E06840F00400E060E06840F400508D
:100BA000E060BDE8F08F00000010014044380240D2
:100BB0000044004000480040004C0040005000400D
:100BC000001401400048E8010024F40000BF31484F
:100BD000006800F020000028F9D02E48001D0068B1
:100BE0002D490870084600783A280BD101202B497E
:100BF00008702B480078401C294908702648007866
:100C0000284908702548007801282BD1224800780F
:100C10003A2827D024490968491E234A11600878D8
:100C200011460968491C116020491D4A1278895CE7
:100C3000194A127891420DD11A490978884209D18E
:100C400017490978491C164A117013490978154A41
:100C5000117006E00021114A1170114A1170114AF9
:100C6000117000BF0C4800780F49096808700E48E1
:100C70000068401C0C4908600D480068401C0C4985
:100C80000860074800780B2802D301200949087042
:100C90007047000000480040B8000020D00000204D
:100CA000D2000020D1000020C0000020C40000209D
:100CB000BC000020B900002000B5024800F004F894
:100CC00000BD000000480040C16841F02001C16043
:100CD000704730380A2801D2012070470020704741
:100CE00030B50346C2F10200C0004843B3FBF0F444
:100CF00000FB143080B200EE900AC2F10200C00086
:100D0000484301EE900AF8EE611AB8EE602AC2EE8E
:100D1000212AB0EE621AF3EE001A61EE211AB0EE4B
:100D2000610AF2EE041A60EE211AFCEEE11A11EEED
:100D3000900A84B2FCEEC01A11EE900A80B20A2525
:100D400005FB10402C4690FBF4F504FB150005282C
:100D500005DBF7EE001A70EE211AB0EE610AFCEE28
:100D6000C01A11EE900A80B230BD10B50346C2F130
:100D70000204E4004C43B3FBF4F4A0B210BD0246FD
:100D80000020412A03DA40EA0213D8B203E0D31F5D
:100D900040EA0313D8B2412904DAA1F13003034336
:100DA000D8B203E0A1F137030343D8B27047000083
:100DB00070B504460D46E1B20248006800F00BF938
:100DC000204670BD5C00002000F00EF90DA0FFF77A
:100DD0004FFA12480568446872B6284680F30888BE
:100DE00000BFA0470DE00E48007850B100200C492C
:100DF00008700CA0FFF73CFA0F4801680F4800F09C
:100E00001FF8F0E7496E69742064657669636520B0
:100E1000636F6D706C657465640D0A0000000108F5
:100E2000B900002053746172742070726F67726130
:100E30006D696E670D0A0000BC000020DC00002018
:100E4000F0B5ADF5057D06460F4600240025FFF7F9
:100E500047FC39E000E0641C305D3A2801D0BC4218
:100E6000F9D3305D3A282ED12246314601A800F050
:100E70003FF84FF4847201A943A8FFF73AFB9DF8AD
:100E80001001042808D19DF8110145EA006543A826
:100E9000807945EA004515E09DF8100190B9BDF84C
:100EA0000E0141190BA0FFF7E3F9BDF80E212A440A
:100EB0009DF80C31D118BDF80E2150190DF2111208
:100EC000FFF768FC00BF641CBC42C3D30DF5057D71
:100ED000F0BD00005772697465206174206164641C
:100EE000726573733A20253038780D0A00000000CF
:100EF000F0B5C3B007460C46154600208DF8040037
:100F0000ADF806008DF80800002605E000210DF17F
:100F100009008155701CC6B2142EF7DB00208DF835
:100F20000901AA1CA15C6A1CA05CFFF728FF8DF8D0
:100F300004002A1DA15CEA1CA05CFFF720FFBDF89D
:100F4000061041EA0020ADF80600AA1DA15C6A1D4A
:100F5000A05CFFF714FFBDF806100843ADF80600CB
:100F600005F10802A15CEA1DA05CFFF708FF8DF8FF
:100F70000800002611E005F10A02022303FB062205
:100F8000A15C05F1090203FB0622A05CFFF7F7FE56
:100F90000DF109018855701CC6B29DF80400B042DD
:100FA000E9DC9DF8043005F10A024FF0020C1CFB4D
:100FB0000322A15C05F109021CFB0322A05CFFF7E0
:100FC000DEFE8DF809014FF4837201A93846FFF760
:100FD0004BFA43B0F0BD00BF026802F08002002A65
:100FE000FAD04160704700000EB5072000210322AF
:100FF000CDE90021029010480179002302220F4818
:10100000FFF732FC072000210322CDE900210290E6
:1010100009484179002302220848FFF725FC4FF4D4
:10102000165000210B460A46CDE900100448FFF790
:101030001DFDFFF7C1FC0EBD200000200004024092
:10104000004800404FF04070E1EE100A7047303128
:1010500032333435363738394142434445464030DF
:101060005800303132333435363738396162636491
:1010700065664030780004000008000000000000B1
:101080000002000100001000A8100008000000206D
:10109000DC000000C401000884110008DC0000200E
:1010A000641A0000E001000800100140090A08006D
:1010B000001001400607FF00004400400203040046
:1010C0000044004005060700004800400A0B0C00E1
:1010D000004800400A0B0C000048004008090A00C4
:1010E000004C00400001FF00004C00400A0BFF00D4
:1010F0000014014006070800005000400C02FF00E9
:10110000000000000048004000100140090A0800EB
:10111000001001400607FF000044004002030400E5
:101120000044004005060700004800400A0B0C0080
:10113000004800400A0B0C000048004008090A0063
:10114000004C00400001FF00004C00400A0BFF0073
:101150000014014006070800005000400C02FF0088
:101160000000000000000000DC0000203A303030B9
:1011700030303030314646000000000000000000F2
:04118000000000006B
:040000050800018965
:00000001FF
