:020000040800F2
:10000000600600200D020008150200081702000813
:10001000190200081B0200081D0200080000000071
:100020000000000000000000000000001F020008A7
:100030002102000800000000230200082502000839
:1000400027020008270200082702000827020008EC
:1000500027020008270200082702000827020008DC
:1000600027020008270200082702000827020008CC
:1000700027020008270200082702000827020008BC
:1000800027020008270200082702000827020008AC
:10009000270200082702000827020008270200089C
:1000A000270200082702000827020008270200088C
:1000B000270200082702000827020008270200087C
:1000C000270200082702000827020008270200086C
:1000D000270200082702000827020008270200085C
:1000E000270200082702000827020008270200084C
:1000F000270200082702000827020008270200083C
:10010000270200082702000827020008270200082B
:10011000270200082702000827020008270200081B
:10012000270200082702000827020008270200080B
:1001300027020008270200082702000827020008FB
:1001400027020008270200082702000827020008EB
:1001500027020008270200082702000827020008DB
:1001600027020008270200082702000827020008CB
:1001700027020008270200082702000800000000EC
:10018000270200082702000800F002F800F02EF80D
:100190000AA090E8000C82448344AAF10107DA45E2
:1001A00001D100F023F8AFF2090EBAE80F0013F006
:1001B000010F18BFFB1A43F0010318476405000044
:1001C000740500000023002400250026103A28BFF3
:1001D00078C1FBD8520728BF30C148BF0B607047B9
:1001E0001FB500F097FA1FBD10B510BD00F031F833
:1001F0001146FFF7F5FF00F091F900F04FF803B456
:10020000FFF7F2FF03BC00F057F8000009488047F1
:1002100009480047FEE7FEE7FEE7FEE7FEE7FEE7E8
:10022000FEE7FEE7FEE7FEE704480549054A064B00
:1002300070470000C9020008890100086000002022
:1002400060060020600200206002002070477047B6
:100250007047754600F02CF8AE46050069465346D7
:1002600020F00700854618B020B5FFF7DDFFBDE898
:1002700020404FF000064FF000074FF000084FF00D
:10028000000B21F00701AC46ACE8C009ACE8C0099E
:10029000ACE8C009ACE8C0098D46704710B504460B
:1002A000AFF300802046BDE81040FFF7A8BF000074
:1002B000004870470000002001491820ABBEFEE74F
:1002C00026000200704700001448006840F47000E7
:1002D000124908601248006840F0010010490860A7
:1002E00000200F49083108600D4800680D4908409A
:1002F0000B4908600C48091D0860081F006820F4BD
:100300008020091F0860002005490C3108604FF06B
:1003100000600249803908607047000088ED00E005
:1003200000380240FFFFF6FE1030002430B50346CF
:10033000C2F10200C0004843B3FBF0F400FB1430EC
:1003400080B200EE900AC2F10200C000484301EE04
:10035000900AF8EE611AB8EE602AC2EE212AB0EED9
:10036000621AF3EE001A61EE211AB0EE610AF2EEA3
:10037000041A60EE211AFCEEE11A11EE900A84B222
:10038000FCEEC01A11EE900A80B20A2505FB10405F
:100390002C4690FBF4F504FB1500052805DBF7EE71
:1003A000001A70EE211AB0EE610AFCEEC01A11EECE
:1003B000900A80B230BD10B50346C2F10204E400D9
:1003C0004C43B3FBF4F4A0B210BD00002DE9F041A2
:1003D000DDE90656089C4C4FB84208D14B4F3F68A8
:1003E00047F00107DFF824C1CCF8007022E0484F45
:1003F000B84208D1454F3F6847F00207DFF80CC10B
:10040000CCF8007016E0434FB84208D13F4F3F6828
:1004100047F00407DFF8F4C0CCF800700AE03E4F64
:10042000B84207D1394F3F6847F00807DFF8DCC012
:10043000CCF8007007684FEA41084FF0030C0CFA43
:1004400008FC27EA0C07076007684FEA410C02FA2C
:100450000CFC47EA0C070760476803FA01FC47EA0F
:100460000C07476087684FEA41084FF0030C0CFA0D
:1004700008FC27EA0C07876087684FEA410C05FAF9
:100480000CFC47EA0C078760C7684FEA41084FF049
:10049000030C0CFA08FC27EA0C07C760C7684FEA90
:1004A000410C06FA0CFC47EA0C07C760082912DA6F
:1004B000076A4FEA81084FF00F0C0CFA08FC27EA94
:1004C0000C070762076A4FEA810C04FA0CFC47EA42
:1004D0000C07076215E0476A4FEA810CACF1200C6B
:1004E0004FF00F0808FA0CF827EA08074762476A36
:1004F0004FEA810CACF1200C04FA0CFC47EA0C0723
:100500004762BDE8F0810000000002403038024040
:100510000004024000080240000C02400EB5072013
:10052000002103220B46CDE90021029002220A217C
:100530000F48FFF74BFF0720002103220B46CDE9B0
:100540000021029002220B210948FFF73FFF4FF4E0
:10055000165000210B460A46CDE90010054800F070
:1005600029F8072204A1034800F012F800BFFEE7B3
:100570000004024000480040636F6E2068656F0011
:1005800000BF026802F08002002AFAD04160704782
:1005900070B505460B461446002606E03046721C30
:1005A000D6B2195C2846FFF7EBFF201EA4F1010428
:1005B000F4D170BD2DE9F04F04460D4616461F4696
:1005C000DDE909894A48844206D14A48006840F07A
:1005D00010004849086038E04748844208D145483F
:1005E000001F006840F400304249091F08602CE0F9
:1005F0004248844208D13F48001F006840F48020F0
:100600003C49091F086020E03D48844208D1394830
:10061000001F006840F400203649091F086014E0FC
:100620003848844208D13348001F006840F48010E5
:100630003049091F086008E03348844205D12D483D
:10064000006840F020002B490860E06840EA05306F
:10065000E060206920F440502061206940EA0630C3
:100660002061E06840EA8720E060E06840EAC83046
:10067000E0601F48844202D02348844214D142469D
:1006800049462248FFF752FE8346424649461F48E4
:10069000FFF791FE8246A06840EA0B00A060A068C8
:1006A00040EA0A10A06014E0424649461848FFF7A5
:1006B0003DFE8346424649461548FFF77CFE82468A
:1006C000A06840EA0B00A060A06840EA0A10A060A1
:1006D00000BFE06840F00800E060E06840F004001F
:1006E000E060E06840F40050E060BDE8F08F00009A
:1006F00000100140443802400044004000480040DF
:10070000004C004000500040001401400048E80147
:100710000024F4004FF04070E1EE100A7047000032
:10072000300700080000002060060000C401000837
:040000050800020DE0
:00000001FF
