:020000040800F2
:1000000038080020390200084102000843020008B5
:1000100045020008470200084902000800000000ED
:100020000000000000000000000000004B0200087B
:100030004D020008000000004F02000851020008B5
:10004000530200085302000853020008530200083C
:10005000530200085302000853020008530200082C
:10006000530200085302000853020008530200081C
:10007000530200085302000853020008530200080C
:1000800053020008530200085302000853020008FC
:1000900053020008530200085302000853020008EC
:1000A00053020008530200085302000853020008DC
:1000B00053020008530200085302000853020008CC
:1000C00053020008530200085302000853020008BC
:1000D00053020008530200085302000853020008AC
:1000E000530200085302000853020008530200089C
:1000F000530200085302000853020008530200088C
:10010000530200085302000853020008530200087B
:10011000530200085302000853020008530200086B
:10012000530200085302000853020008530200085B
:10013000530200085302000853020008530200084B
:10014000530200085302000853020008530200083B
:10015000530200085302000853020008530200082B
:10016000530200085302000853020008530200081B
:100170005302000853020008530200080000000068
:10018000530200085302000800F002F800F044F89F
:100190000AA090E8000C82448344AAF10107DA45E2
:1001A00001D100F039F8AFF2090EBAE80F0013F0F0
:1001B000010F18BFFB1A43F0010318472414000075
:1001C00044140000103A24BF78C878C1FAD8520706
:1001D00024BF30C830C144BF04680C6070470000C1
:1001E0000023002400250026103A28BF78C1FBD840
:1001F000520728BF30C148BF0B6070471FB501F0E0
:10020000D9F89DE8030000F08BFB00F0ABF81FBDB0
:1002100010B500F010F910BD00F040FB1146FFF7DB
:10022000EDFF01F08AF800F0CDFC03B4FFF7F0FF1A
:1002300003BC00F0EFFC0000094880470948004774
:10024000FEE7FEE7FEE7FEE7FEE7FEE7FEE7FEE786
:10025000FEE7FEE704480549054A064B70470000E3
:10026000850D0008890100083802002038080020A8
:10027000380400203804002001F052B84FF0013C4F
:1002800050F8042B51F8043B9A4221D1A2EB0C0305
:10029000934313EACC1317D150F8042B51F8043BC5
:1002A0009A4215D1A2EB0C03934313EACC130BD162
:1002B00050F8042B51F8043B9A4209D1A2EB0C03ED
:1002C000934313EACC13DBD04FF00000704700BF1C
:1002D000D01A01BAB1FA81F101F0180122FA01F045
:1002E000CB40C1F12001DBB2C0B2C01A2CFA01F33D
:1002F000D11A914311EAC311E6D170477047704794
:100300007047A0E8004FF0C040F804DB01B5AFF340
:100310000080BDE8024001C10020A1EC068BA1ECE9
:1003200002BBA1EC06CBA1EC02FB704700F12C084C
:100330000C46B8EC068BB8EC02BBB8EC06CBB8ECBC
:1003400002FB00F12C0858F8040DAFF3008058F8B8
:10035000040D8546200008BF012038E9F00018E9A7
:10036000004F704710B54248542100F070FA4148E0
:10037000542100F06CFA4048542100F068FA3F49DB
:100380003B483C4A3F4B08603D490A603A49196086
:10039000531C0365481C1065012008653B48344A1E
:1003A00039A1784400F0B0F920B9384878440A38C7
:1003B00000F046FA37482F4A35A1784400F0A4F9F6
:1003C00020B9344878440A3800F03AFA32482A4AC8
:1003D0002FA1784400F098F920B92F4878440A38C2
:1003E00000F02EFA40232248DC000021224600F0D3
:1003F00067F920B125487844543800F021FA1D48A7
:1004000022464023002100F05BF920B121487844C6
:10041000543800F015FA184822461023002100F045
:100420004FF9002806D01C487844BDE810405638E3
:1004300000F006BA10BD104870B5006D20F0010440
:100440000B4800F0D7F90B4800F0D4F90A4800F047
:10045000D1F909E0206D20F00105204600F0CAF92D
:10046000204600F01BF82C46002CF3D170BD000094
:10047000D80000202C010020800100200000002076
:10048000040000200800002072000000221200007A
:1004900077000000111200000112000070B5044640
:1004A000051F00F021FA0068002C14BF446870BDDD
:1004B000002C18BFAC423CBF20466468F8D30168EA
:1004C0000A18AA4218BF456003D12A68054611449C
:1004D000016028684119A1421CBF6C6070BD616851
:1004E000696021680844286070BD2DE9F047054621
:1004F0000C46C86820F4201040F48000C8608006D4
:1005000002D5084600F03DFBE06841F282014FF061
:10051000FF390140022903D0204600F0DBFAB5E0A4
:1005200000F42041B1F5004F0FD1C00306D561683A
:10053000E06A884200D80846606006E02069E06210
:100540006060606900F051FEA061A0680022EEB218
:1005500000280DDAE1688B050AD4C043A06041F49D
:1005600090302260E0606068411C61600670A5E028
:10057000E0689046226040F40050E060206968BB6B
:10058000606900F044FE012704F12405A0B1A089B0
:1005900010F4407F08D0E06900F0F1F9206118B153
:1005A000E06840F4006016E0E7612561E06820F44F
:1005B000407040F480600EE0E06900F0E0F900284F
:1005C0002061F1D0E06840F4006010F4407FE0600A
:1005D00002D140F48070E06020696060E0682569C5
:1005E0006FF0010AC1051FD56168E06A884200D832
:1005F0000846411B04D02246284600F075FAF0BB9D
:10060000E068010203D5E562C4E9015854E0691CC1
:10061000E1626160E16940F48030491EC4E9021082
:1006200030462E70BDE8F087010202D500F480321A
:100630000AE06068411C61600670E0680A2E40F4C0
:100640008030E06006D00022E16A6068814203D910
:100650000B4602E00122F7E70346A7895B1B7F05F3
:1006600003D4E7699F4200DDE2B1814200D8014630
:10067000E5620F1AC4E90158002B09DD00E005E02E
:1006800022461946284600F02FFA08B14846C9E725
:1006900047B1A069E5626560C01BA061E06840F0F9
:1006A0001000E060E068000208D56168A069E562BA
:1006B000491B08446560A0615046B3E73046B1E786
:1006C00070B5C468A50713D0650211D4B2F5807F58
:1006D00009D0B2F5007F06D0B2F5806F08D10123B2
:1006E00000F1240106E05D1E6FF07F46B54201D3A4
:1006F000012070BD0161C361416024F47061114348
:10070000C160002070BD00002DE9F0410C46074695
:100710001646104600F06EF82078611C61280AD059
:10072000722802D077283CD102E00125002405E0A0
:100730000225042402E0082448F2020511F8010B06
:100740002B2806D0622809D011F8010C74280AD091
:100750000BE045F0030544F00204EFE745F0040523
:1007600044F00104EAE744F010043846214600F062
:1007700061FD411C15D00021316171604FF40071A1
:10078000F560F1617061200704D530460222002136
:1007900000F024F9306D40F0010030653046BDE8CE
:1007A000F0810020FBE72DE9F0410D460646104C94
:1007B000206DC10704D0410804D020F00104F7E700
:1007C00022460EE0542000F0DAF807000ED0206D2B
:1007D00047F00101084354212065384600F037F8FE
:1007E0003A4629463046BDE8F0418DE70020D6E77D
:1007F000D80000202DE9F04704464FF000094FF0E3
:10080000FF37C568D4E90486A80707D0204600F062
:1008100095F9304600F0D6FC002802DA3846BDE8EB
:10082000F087280502D54046FFF738FE4C212046C8
:1008300000F00DF8206D20F0010020654846EEE73D
:1008400010B500F0CDF9BDE8104000F0C4B94FF08C
:10085000000200B5134694469646203922BFA0E810
:100860000C50A0E80C50B1F12001BFF4F7AF09071C
:1008700028BFA0E80C5048BF0CC05DF804EB89000D
:1008800028BF40F8042B08BF704748BF20F8022B50
:1008900011F0804F18BF00F8012B7047754600F02B
:1008A000BFF9AE4605006946534620F0070085466D
:1008B00018B020B5FFF7CEFCBDE820404FF0000691
:1008C0004FF000074FF000084FF0000B21F0070138
:1008D000AC46ACE8C009ACE8C009ACE8C009ACE87B
:1008E000C0098D467047000000487047DC010020B9
:1008F000704770477047704738B504460A46002075
:100900006946AFF30080002808BF38BD0246009951
:10091000204600F090F9012038BD012000F0DFB939
:10092000F8B5AFF30080054600200C46102000BF4C
:100930000646A819A0420DD9324669460020AFF3F9
:100940000080070008BF00F0CAF90098A04218BF55
:100950000546C419FFF7C8FF05600746F01D20F0E3
:1009600007004619284600F05FF9B44208BFF8BDF9
:10097000A21B31463868BDE8F84000F05CB970B59C
:100980000646FFF7B1FF056806F10B0020F00704EB
:10099000B4429CBF002070BD2B466A68BAB1106893
:1009A000A04210D304F1080188423CBF506858604F
:1009B00007D35168101941601168091B0160586024
:1009C0001460101D70BD13465268002AE7D12146FD
:1009D0002846FFF791FF0028DED170BD2DE9F041D8
:1009E000044616460D464769007B80072ED03846E0
:1009F00000F00DFC50BB3EB3012E02D0022E25D1DB
:100A000004E0204600F031F905441DE0384600F0CE
:100A1000ECFBE168002841F01001E16005DA2046B6
:100A200000F058F80120BDE8F081C9030BD56268D9
:100A3000E16A914200D81146A26911442269891ADB
:100A4000814200DD08460544002D01DA0220EAE774
:100A5000E16A6068E268814206D29103E06203D5F0
:100A600022F4003141F01002A6690027AE4213DCE7
:100A7000E16A814201D90B4600E0034603EB060C14
:100A80002369ACEB030CAC4506DD814201D98C46F1
:100A900000E084469C4505D1A760276042F0200015
:100AA000A5620DE0AD1BE669AE1B8142A66000D9D0
:100AB0000846C01A281A20605819606022F02000E9
:100AC00003490840E060002084F84870ABE700006C
:100AD000BFCFD7FFC16821F4001141F08001C16090
:100AE00000218160016070472DE9F047814614467E
:100AF0000E464FF0FF383248D5685769054209D095
:100B00003846A16900F0CAFB002811DB2C48C0431D
:100B10000540E5602B4632464946384600F0D4FB96
:100B2000A16920F00042B21A11440028A16103D04B
:100B30002046FFF7CFFF4046BDE8F08770B504467A
:100B40000569C06A6168884200D80846E16821F4F6
:100B50002011E160C90312D5A84208D02246411BEA
:100B60002846FFF7C1FF10B14FF0FF3070BD0020E5
:100B7000E562C4E90150E06820F48030E0600020C4
:100B800070BD10B50446C06820F02000E060A16A86
:100B9000A06988420DD02046FFF7D0FFE06820F41E
:100BA000405040F01000E060A06AA0612069E0625F
:100BB000606044F24001E0688843E06010BD0000DE
:100BC0001000020010B50446AFF300802046BDE8D7
:100BD0001040FFF72ABB002801D000F01BB8704777
:100BE00010B5014602A000F061F8012010BD000020
:100BF00053494752545245443A20526564697265DC
:100C000063743A2063616E2774206F70656E3A20BA
:100C10000000000001491820ABBEFEE726000200DC
:100C200000487047D401002000210160C0E9011094
:100C3000704710207047034640688C46002818BF54
:100C400088423CBF03464068F8D31868184488427D
:100C500007D00CF1030020F00700001D411A521AC2
:100C60000146081D0A60FFF719BC10B50146C268AD
:100C7000900703D0900607D5886A0AE000F03EF896
:100C800001210160881E10BD8B69486818440B69FA
:100C9000C01A91F848301BB191F84910401A10BDA4
:100CA0001103FCD50028FADD401E10BD70B50546C5
:100CB0000C460A2000E06D1C00F018F835B12878C9
:100CC0000028F8D102E0641C00F010F814B120787C
:100CD0000028F8D1BDE870400A2000F007B810B530
:100CE00000F010F8BDE81040FFF775BF08B5694681
:100CF0008DF800000320ABBE08BD70470048704768
:100D0000D401002010B5012805D0002103A0FFF771
:100D1000CDFF012010BD09A1F8E70000534947525B
:100D2000544D454D3A204F7574206F6620686561BB
:100D300070206D656D6F7279000000003A20486583
:100D40006170206D656D6F727920636F727275705E
:100D5000746564000A49096801F0010171B108492C
:100D60008039096801F0010141B100BF4FF06041D5
:100D700009680029FAD04FF06042107070470000F7
:100D8000800E00E01448006840F4700012490860CA
:100D90001248006840F001001049086000200F4927
:100DA000083108600D4800680D4908400B4908608B
:100DB0000C48091D0860081F006820F48020091FE6
:100DC0000860002005490C3108604FF000600249BE
:100DD000803908607047000088ED00E0003802406C
:100DE000FFFFF6FE1030002410B50446E4B10F48B2
:100DF00000F0FCF80E48806898B10E4800F0F6F854
:100E00000B49886800F0F2F80948C06830B10A4818
:100E100000F0ECF80649C86800F0E8F8034800F074
:100E2000E5F8204600F0E2F810BD0000D9130008F4
:100E300010000020A0150008AA1500082DE9F041B7
:100E400005460C4617461E46DDF818801348006A12
:100E500010B91248406A08B1BDE8F081A5421BD024
:100E6000304600F099F90E4800F0C0F84146284697
:100E700000F008F90B4800F0B9F84146204600F0B0
:100E800001F93846FFF7B0FF01200449086201214B
:100E900002482830FFF74AFA00BFDDE710000020C3
:100EA000DC130008E7130008064908600021054A22
:100EB0005160116151619161D16111625162916022
:100EC000D16070471000002010B51148406A28B169
:100ED0000F48C069401C0E49C86110E00C48006A08
:100EE00040B90B4A1169106800F038F9094800F060
:100EF0007DF804E006488069401C054988610020AF
:100F000003490862486204490A20FFF7B5F910BD99
:100F100010000020C31300082C01002070B5044607
:100F20000D4616460D48456006614069401C0B4958
:100F3000486100208860C86001F12800FFF7E1F9EE
:100F400010B900F01FFAA04704482830FFF7D9F97C
:100F500008B900F024FAFFF7B7FF70BD10000020B9
:100F600010B51A490A20FFF787F9194800F03EF832
:100F700016490A20FFF780F91649486900F072F80F
:100F8000154800F033F81349886900F06BF81348EE
:100F900000F02CF80F49C86900F064F8104800F020
:100FA00025F80A490A20FFF767F90A48806918B945
:100FB0000C4800F01BF802E00B4800F017F803495A
:100FC0000A20FFF759F90348806910BD2C01002061
:100FD0006B15000810000020831500088B15000811
:100FE00096150008C0130008C813000870B5054620
:100FF0002C46002C33D02FE020787E2807DC207888
:10100000202804DB20781649FFF736F923E0207802
:101010000D2808D112495C20FFF72EF910497220E3
:10102000FFF72AF917E020780A2808D10C495C203C
:10103000FFF722F90A496E20FFF71EF90BE0084975
:101040005C20FFF719F906497820FFF715F9207899
:10105000022100F03BF8641C20780028CCD170BD40
:101060002C01002070B504462546002C04DA044902
:101070002D20FFF701F96542284600F04DF870BDBC
:101080002C01002070B505460C4604F01000102815
:1010900003D12846FFF7E6FF14E004F020002028E3
:1010A00003D1284600F038F80CE007493020FFF75C
:1010B000E3F805497820FFF7DFF82007C10E28463E
:1010C00000F004F870BD00002C0100202DE9F04173
:1010D00007460E463546082D00D9082515E0681E3E
:1010E000C5B2A80027FA00F000F00F04092C06DCB6
:1010F00004F13001C8B20749FFF7BEF805E004F17A
:101100003701C8B20349FFF7B7F8002DE7DCBDE8A7
:10111000F08100002C01002070B50546012402E09A
:1011200004EB84004400B5FBF4F00928F8D800BFB4
:10113000B5FBF4F00A21B0FBF1F201FB120000F163
:10114000300605493046FFF797F80A20B4FBF0F463
:10115000002CEDD170BD00002C01002070B50546BB
:101160000C462846FFF742FF09493A20FFF784F86A
:101170002046FFF777FF06493A20FFF77DF805493B
:101180004868FFF733FF02493A20FFF775F870BD52
:101190002C0100201000002010B504460649086804
:1011A0002146FFF7DBFF0548FFF720FF04493A20FF
:1011B000FFF762F810BD000010000020C8130008FF
:1011C0002C01002001466FF40040084420B10128A2
:1011D00004D0022806D103E0002070470020FCE77D
:1011E0000020FAE74FF0FF30F7E701466FF40040C8
:1011F000084420B1012804D0022806D103E00020D1
:1012000070470020FCE70020FAE70020F8E70146DD
:101210006FF40040084420B1012804D0022806D110
:1012200003E0012070470120FCE70120FAE70020DD
:10123000F8E7000070B504460D4614B94FF0FF30D2
:1012400070BD20783A281AD10EA12046FFF716F873
:1012500010B948F20100F3E70CA12046FFF70EF8A1
:1012600010B948F20200EBE70AA12046FFF706F8A2
:1012700010B948F20300E3E74FF0FF30E0E74FF02A
:10128000FF30DDE73A535444494E00003A5354448A
:101290004F5554003A5354444552520002466FF49D
:1012A0000040104420B1012805D0022809D105E0F2
:1012B0004FF0FF3070474FF0FF30FBE74FF0FF304B
:1012C000F8E74FF0FF30F5E72DE9F04107460C460F
:1012D000154698466FF40040384420B1012806D0E6
:1012E00002281AD10EE04FF0FF30BDE8F08105E092
:1012F00014F8016B304600F04CF86D1E002DF7D14C
:101300000020F2E705E014F8016B304600F03BF8EE
:101310006D1E002DF7D10020E7E74FF0FF30E4E726
:101320008A68002A01DCFFF7E0B8521E8A604A682A
:10133000C0B2531C4B601070704710B500F002F83B
:10134000002010BD10B505A0FFF7AEFD0F2209A1CA
:101350000B48FFF7E3FDFFF703FE10BD556E697400
:1013600054657374696E675C75745F6D61696E2E28
:101370006300000075745F6770696F496E6974007F
:10138000A1130008704700B503461846FFF7E2FCBA
:1013900000BD00B503461846FFF7DCFC00BD7047F2
:1013A00008B5412005230022142100900846FFF7CC
:1013B00045FD08BD4FF04070E1EE100A7047000097
:1013C0004F4B0050415353004641494C0049474E52
:1013D0004F5245004E554C4C002E20002045787051
:1013E0006563746564200020576173200020746F6A
:1013F0002062652067726561746572207468616E31
:10140000200020746F206265206C657373207468FF
:10141000616E20006F7220657175616C20746F20A1
:101420000020456C656D656E7420002042797465FE
:101430002000204D656D6F7279204D69736D617468
:1014400063682E002056616C756573204E6F7420A2
:1014500057697468696E2044656C74612000205976
:101460006F752041736B6564204D6520546F204378
:101470006F6D70617265204E6F7468696E672C20A5
:1014800057686963682057617320506F696E746C88
:101490006573732E002045787065637465642070F1
:1014A0006F696E74657220746F206265204E554CB2
:1014B0004C002041637475616C20706F696E7465B7
:1014C0007220776173204E554C4C004E6F74200093
:1014D000496E66696E697479004E656761746976F4
:1014E0006520496E66696E697479004E614E0044EC
:1014F000657465726D696E61746500496E76616CC4
:10150000696420466C6F617420547261697400557F
:101510006E69747920466C6F6174696E6720506FD4
:10152000696E742044697361626C656400556E690C
:10153000747920446F75626C6520507265636973BD
:10154000696F6E2044697361626C656400556E69F1
:1015500074792036342D62697420537570706F72FF
:10156000742044697361626C6564002D2D2D2D2DEE
:101570002D2D2D2D2D2D2D2D2D2D2D2D2D2D2D2D9B
:101580002D2D002054657374732000204661696C12
:101590007572657320002049676E6F726564200064
:1015A00046756E6374696F6E200020417267756DB9
:1015B000656E742000000000D0140008D9140008E3
:1015C000EB140008EF1400083A535444494E003A13
:1015D0005354444F5554003A53544445525200001A
:1015E00000160008000000200C000000C4010008E4
:1015F0000C1600080C0000202C080000E001000878
:0C160000000000000000000000000000DE
:0400000508000239B4
:00000001FF
